{
  "contractName": "VehicleManager",
  "abi": [
    {
      "inputs": [],
      "payable": false,
      "stateMutability": "nonpayable",
      "type": "constructor"
    },
    {
      "anonymous": false,
      "inputs": [
        {
          "indexed": false,
          "name": "_vin",
          "type": "bytes32"
        },
        {
          "indexed": false,
          "name": "vowner",
          "type": "string"
        }
      ],
      "name": "NewVehicle",
      "type": "event"
    },
    {
      "constant": false,
      "inputs": [
        {
          "name": "_vin",
          "type": "bytes32"
        },
        {
          "name": "_year",
          "type": "string"
        },
        {
          "name": "_model",
          "type": "string"
        },
        {
          "name": "_make",
          "type": "string"
        },
        {
          "name": "_vonwer",
          "type": "string"
        }
      ],
      "name": "registerVehicle",
      "outputs": [],
      "payable": false,
      "stateMutability": "nonpayable",
      "type": "function"
    },
    {
      "constant": true,
      "inputs": [
        {
          "name": "_id",
          "type": "bytes32"
        }
      ],
      "name": "isVehicle",
      "outputs": [
        {
          "name": "",
          "type": "bool"
        }
      ],
      "payable": false,
      "stateMutability": "view",
      "type": "function"
    },
    {
      "constant": false,
      "inputs": [
        {
          "name": "_vin",
          "type": "bytes32"
        },
        {
          "name": "_voner",
          "type": "string"
        }
      ],
      "name": "transferVehicle",
      "outputs": [
        {
          "name": "",
          "type": "string"
        }
      ],
      "payable": false,
      "stateMutability": "nonpayable",
      "type": "function"
    },
    {
      "constant": true,
      "inputs": [
        {
          "name": "_id",
          "type": "bytes32"
        }
      ],
      "name": "getVehicleOnwer",
      "outputs": [
        {
          "name": "",
          "type": "string"
        }
      ],
      "payable": false,
      "stateMutability": "view",
      "type": "function"
    },
    {
      "constant": true,
      "inputs": [
        {
          "name": "_id",
          "type": "bytes32"
        }
      ],
      "name": "getVehiclemake",
      "outputs": [
        {
          "name": "",
          "type": "string"
        }
      ],
      "payable": false,
      "stateMutability": "view",
      "type": "function"
    },
    {
      "constant": true,
      "inputs": [
        {
          "name": "_id",
          "type": "bytes32"
        }
      ],
      "name": "getVehiclemodel",
      "outputs": [
        {
          "name": "",
          "type": "string"
        }
      ],
      "payable": false,
      "stateMutability": "view",
      "type": "function"
    },
    {
      "constant": true,
      "inputs": [
        {
          "name": "_id",
          "type": "bytes32"
        }
      ],
      "name": "getVehicleyear",
      "outputs": [
        {
          "name": "",
          "type": "string"
        }
      ],
      "payable": false,
      "stateMutability": "view",
      "type": "function"
    }
  ],
  "bytecode": "0x6060604052341561000f57600080fd5b336000806101000a81548173ffffffffffffffffffffffffffffffffffffffff021916908373ffffffffffffffffffffffffffffffffffffffff160217905550610d718061005e6000396000f300606060405260043610610083576000357c0100000000000000000000000000000000000000000000000000000000900463ffffffff16806309b486fb146100885780631bd4fa4b146101285780639ee890431461020b578063d2e5aeee146102ab578063d4e9a481146102ea578063ebb947c11461041d578063ecdac500146104bd575b600080fd5b341561009357600080fd5b6100ad60048080356000191690602001909190505061055d565b6040518080602001828103825283818151815260200191508051906020019080838360005b838110156100ed5780820151818401526020810190506100d2565b50505050905090810190601f16801561011a5780820380516001836020036101000a031916815260200191505b509250505060405180910390f35b341561013357600080fd5b61019060048080356000191690602001909190803590602001908201803590602001908080601f0160208091040260200160405190810160405280939291908181526020018383808284378201915050505050509190505061063d565b6040518080602001828103825283818151815260200191508051906020019080838360005b838110156101d05780820151818401526020810190506101b5565b50505050905090810190601f1680156101fd5780820380516001836020036101000a031916815260200191505b509250505060405180910390f35b341561021657600080fd5b61023060048080356000191690602001909190505061072a565b6040518080602001828103825283818151815260200191508051906020019080838360005b83811015610270578082015181840152602081019050610255565b50505050905090810190601f16801561029d5780820380516001836020036101000a031916815260200191505b509250505060405180910390f35b34156102b657600080fd5b6102d060048080356000191690602001909190505061080a565b604051808215151515815260200191505060405180910390f35b34156102f557600080fd5b61041b60048080356000191690602001909190803590602001908201803590602001908080601f0160208091040260200160405190810160405280939291908181526020018383808284378201915050505050509190803590602001908201803590602001908080601f0160208091040260200160405190810160405280939291908181526020018383808284378201915050505050509190803590602001908201803590602001908080601f0160208091040260200160405190810160405280939291908181526020018383808284378201915050505050509190803590602001908201803590602001908080601f01602080910402602001604051908101604052809392919081815260200183838082843782019150505050505091905050610856565b005b341561042857600080fd5b6104426004808035600019169060200190919050506109fb565b6040518080602001828103825283818151815260200191508051906020019080838360005b83811015610482578082015181840152602081019050610467565b50505050905090810190601f1680156104af5780820380516001836020036101000a031916815260200191505b509250505060405180910390f35b34156104c857600080fd5b6104e2600480803560001916906020019091905050610adb565b6040518080602001828103825283818151815260200191508051906020019080838360005b83811015610522578082015181840152602081019050610507565b50505050905090810190601f16801561054f5780820380516001836020036101000a031916815260200191505b509250505060405180910390f35b610565610bbb565b60006105708361080a565b151561057b57600080fd5b6002600084600019166000191681526020019081526020016000206003019050808054600181600116156101000203166002900480601f0160208091040260200160405190810160405280929190818152602001828054600181600116156101000203166002900480156106305780601f1061060557610100808354040283529160200191610630565b820191906000526020600020905b81548152906001019060200180831161061357829003601f168201915b5050505050915050919050565b610645610bbb565b338073ffffffffffffffffffffffffffffffffffffffff166000809054906101000a900473ffffffffffffffffffffffffffffffffffffffff1673ffffffffffffffffffffffffffffffffffffffff161415156106a157610723565b6106aa8461080a565b15156106b557600080fd5b8260026000866000191660001916815260200190815260200160002060040190805190602001906106e7929190610bcf565b506002806000866000191660001916815260200190815260200160002060050160006101000a81548160ff021916908360000b60ff1602179055505b5092915050565b610732610bbb565b600061073d8361080a565b151561074857600080fd5b6002600084600019166000191681526020019081526020016000206004019050808054600181600116156101000203166002900480601f0160208091040260200160405190810160405280929190818152602001828054600181600116156101000203166002900480156107fd5780601f106107d2576101008083540402835291602001916107fd565b820191906000526020600020905b8154815290600101906020018083116107e057829003601f168201915b5050505050915050919050565b60008060026000846000191660001916815260200190815260200160002060050160009054906101000a900460000b60000b14151561084c5760019050610851565b600090505b919050565b338073ffffffffffffffffffffffffffffffffffffffff166000809054906101000a900473ffffffffffffffffffffffffffffffffffffffff1673ffffffffffffffffffffffffffffffffffffffff161415156108b2576109f3565b6108bb8661080a565b1515156108c757600080fd5b600180548060010182816108db9190610c4f565b91600052602060002090016000889091909150906000191690555060c06040519081016040528087600019168152602001868152602001858152602001848152602001838152602001600160000b815250600260008860001916600019168152602001908152602001600020600082015181600001906000191690556020820151816001019080519060200190610973929190610c7b565b506040820151816002019080519060200190610990929190610c7b565b5060608201518160030190805190602001906109ad929190610c7b565b5060808201518160040190805190602001906109ca929190610c7b565b5060a08201518160050160006101000a81548160ff021916908360000b60ff1602179055509050505b505050505050565b610a03610bbb565b6000610a0e8361080a565b1515610a1957600080fd5b6002600084600019166000191681526020019081526020016000206001019050808054600181600116156101000203166002900480601f016020809104026020016040519081016040528092919081815260200182805460018160011615610100020316600290048015610ace5780601f10610aa357610100808354040283529160200191610ace565b820191906000526020600020905b815481529060010190602001808311610ab157829003601f168201915b5050505050915050919050565b610ae3610bbb565b6000610aee8361080a565b1515610af957600080fd5b6002600084600019166000191681526020019081526020016000206002019050808054600181600116156101000203166002900480601f016020809104026020016040519081016040528092919081815260200182805460018160011615610100020316600290048015610bae5780601f10610b8357610100808354040283529160200191610bae565b820191906000526020600020905b815481529060010190602001808311610b9157829003601f168201915b5050505050915050919050565b602060405190810160405280600081525090565b828054600181600116156101000203166002900490600052602060002090601f016020900481019282601f10610c1057805160ff1916838001178555610c3e565b82800160010185558215610c3e579182015b82811115610c3d578251825591602001919060010190610c22565b5b509050610c4b9190610cfb565b5090565b815481835581811511610c7657818360005260206000209182019101610c759190610d20565b5b505050565b828054600181600116156101000203166002900490600052602060002090601f016020900481019282601f10610cbc57805160ff1916838001178555610cea565b82800160010185558215610cea579182015b82811115610ce9578251825591602001919060010190610cce565b5b509050610cf79190610cfb565b5090565b610d1d91905b80821115610d19576000816000905550600101610d01565b5090565b90565b610d4291905b80821115610d3e576000816000905550600101610d26565b5090565b905600a165627a7a7230582084595e201ae1caba0cc70669f061f3c829d850793fbe09e07bbcb12c493921090029",
  "source": "pragma solidity ^0.4.15;\ncontract VehicleManager {\n\n    \taddress owner;\n        bytes32[]  vins;\n        mapping(bytes32 => Vehicle) vehicleMap;\n\n         function VehicleManager() public {\n            owner = msg.sender;\n        }\n\n        event NewVehicle(bytes32 _vin,string vowner);\n\n    \tstruct Vehicle {\n\t\t    bytes32 vin;\n\t\t    string year;\n\t\t    string model;\n\t\t    string make;\n\t\t    string vehicleOwner;\n\t    \tint8 status;  //  0 not exist, 1 created, 2 transferred...\n\n\t    }\n        modifier isOwner(address sender) {\n            if (owner != sender) {\n                revert;\n            }else {\n                _;\n            }\n        }\n\n        function registerVehicle(bytes32 _vin,string _year,string _model,string _make,string _vonwer) isOwner(msg.sender) public {\n\n            require(!isVehicle(_vin));\n            vins.push(_vin);\n            vehicleMap[_vin] = Vehicle(_vin,_year,_model, _make,_vonwer, 1);\n        }\n\n        function isVehicle(bytes32 _id) public constant returns(bool) {\n\t\tif (vehicleMap[_id].status != 0) {\n\t\t\treturn true;\n\t\t    }\n\n\t        return false;\n\t    }\n\n\n\t    function transferVehicle(bytes32 _vin,string _voner) public isOwner(msg.sender) returns(string) {\n\t        require(isVehicle(_vin));\n            vehicleMap[_vin].vehicleOwner = _voner;\n            vehicleMap[_vin].status = 2;\n\n\n\t    }\n\t    function getVehicleOnwer(bytes32 _id) public constant returns(string) {\n\t        require(isVehicle(_id));\n\t        string storage owner = vehicleMap[_id].vehicleOwner;\n\t        return owner;\n\t    }\n          function getVehiclemake(bytes32 _id) public constant returns(string) {\n\t        require(isVehicle(_id));\n\t        string storage vmake = vehicleMap[_id].make;\n\t        return vmake;\n\t    }\n\t\t   function getVehiclemodel(bytes32 _id) public constant returns(string) {\n\t        require(isVehicle(_id));\n\t        string storage vmodel = vehicleMap[_id].model;\n\t        return vmodel;\n\t    }\n\t\t   function getVehicleyear(bytes32 _id) public constant returns(string) {\n\t        require(isVehicle(_id));\n\t        string storage vyear = vehicleMap[_id].year;\n\t        return vyear;\n\t    }\n\t    /**\n\t    function serviceHistory(bytes32 _id) public returns (string[]){\n\t        // to be implemented\n\t    }\n        **/\n}",
  "sourcePath": "/Users/peza/Documents/crypto/car_mart/contracts/VehicleManager.sol",
  "compiler": {
    "name": "solc",
    "version": "0.4.19+commit.c4cbbb05.Emscripten.clang"
  },
  "schemaVersion": "2.0.0",
  "updatedAt": "2018-03-14T00:49:10.847Z"
}